:020000040000FA
:060000000A128A110C280F
:10000800FE00030EF1000A08F2000A128A114128C4
:100018000A128A110F2883010A128A116A28831684
:1000280003178801890183160313850103308600AD
:1000380087018801831203138501860187018801DE
:10004800831603130F088F3960388F000F1481123D
:1000580081110115811401148B178B150B108B1648
:100068000B113D3083120313810083160313811390
:10007800033095001614961408000B1D44284528D3
:100088004E280130F00070088312031385070B1106
:100098003D3081000B1C512852286328831203131A
:1000A8000618572858285C280130F0007008870780
:1000B80086185F2860286228013087020B107208B2
:1000C8008A00710E8300FE0E7E0E09000A128A1144
:1000D80013200A128A1103308312031388006F2831
:0600E8000A128A110C2827
:04400E00D420FF3F7C
:00000001FF
