:020000040000FA
:060000000A128A110E280D
:10000800FE00030EF1000408F2000A08F3000A12C9
:100018008A1144290A128A11112883133530FD00E8
:100028000130FE00E630FF002B3084000A128A11EE
:10003800D7210A128A11F801F90183010A128A11DB
:10004800BF2983120313A501A11F2B282C283328AD
:10005800A009A109A00A0319A10AA501A50AA31FBD
:10006800362837284028A209A309A20A0319A30A97
:100078000130F4007408A506A601A7012008210490
:100088000319472848287F28A401A40A56280130C4
:100098000310A00DA10DFF3E031D4C280130F400F4
:1000A8007408A407A11F59285A284B2801300310A7
:1000B800A60DA70DFF3E031D5B2821082302031D83
:1000C800672820082202031C6A286B287228200847
:1000D800A2022108031CA303A30226140130031063
:1000E800A10CA00CFF3E031D73280130A402031DC0
:1000F8007E287F285A2825080319832884288928D8
:10010800A609A709A60A0319A70A2708A10026080D
:10011800A0000800643083120313A0000030A1007F
:100128007708A800A9012808A2002908A3000A1234
:100138008A1125200A128A11831203132008AA00A3
:100148002A08B6006430A0000030A1007708A80093
:10015800A9012808A2002908A3000A128A11E92087
:100168000A128A11831203132008AA002A08F6002B
:100178000A30A0000030A1007608A800A9012808CC
:10018800A2002908A3000A128A1125200A128A113E
:10019800831203132008AA002A08B5000A30A00019
:1001A8000030A1007608A800A9012808A2002908A3
:1001B800A3000A128A11E9200A128A118312031372
:1001C8002008AA002A08F600080083120313A501D4
:1001D800A31FEF28F028F728A209A309A20A0319E8
:1001E800A30AA501A50AA11FFA28FB280029A0092E
:1001F800A109A00A0319A10A200821040319052945
:1002080006293529A401A40A142901300310A00DD8
:10021800A10DFF3E031D0A290130F4007408A4074C
:10022800A11F17291829092921082302031D1E299E
:1002380020082202031C2129222928292008A20299
:100248002108031CA303A30201300310A10CA00C76
:10025800FF3E031D29290130A402031D3429352935
:1002680018292508031939293A293F29A209A30978
:10027800A20A0319A30A2308A1002208A000080063
:100288000B1D472948297A298312031308110814DA
:1002980036082B3E84008313000887000130F800DD
:1002A8000030F90078037904031D5B295C2967296C
:1002B8000810881435082B3E840000088700023097
:1002C800F8000030F900023078067904031D6D2922
:1002D8006E2977298810081576082B3E84000008B7
:1002E8008700F801F9010B11FF3081000B1C7D29F3
:1002F8007E298F29831203130618832984298829C4
:100308000130F0007008850786188B298C298E2902
:10031800013085020B1073088A0072088400710E80
:100328008300FE0E7E0E09008316031788018901DB
:100338008316031306148614850187018801831226
:1003480003138501860187018801831603130F13A0
:100358008F160F120F1481128111011581140114C7
:100368008B178B150B108B160B118113033095000F
:100378001614961408000A128A1198210A128A1172
:10038800831203130508F5007508F7000A128A118D
:100398008E200A128A11C4290A128A110E287E0890
:1003A8008A007F0882000A128A11D3210A128A1150
:1003B8008000840A04087D0603190034FF0A031923
:1003C800FE0AD7293F3406345B344F3466346D3423
:0803D8007D3407347F346F34DB
:04400E00D420FF3F7C
:00000001FF
